:107800000C94343C0C94513C0C94513C0C94513CE1
:107810000C94513C0C94513C0C94513C0C94513CB4
:107820000C94513C0C94513C0C94513C0C94513CA4
:107830000C94513C0C94513C0C94513C0C94513C94
:107840000C94513C0C94513C0C94513C0C94513C84
:107850000C94513C0C94513C0C94513C0C94513C74
:107860000C94513C0C94513C11241FBECFEFD8E036
:10787000DEBFCDBF11E0A0E0B1E0EEE2FEE702C066
:1078800005900D92A230B107D9F712E0A2E0B1E065
:1078900001C01D92AD30B107E1F70E94263D0C9466
:1078A000153F0C94003C9091C00095FFFCCF909147
:1078B000C1009F7E9093C1008093C6008091C0005C
:1078C00086FFFCCF8FE19EE40197F1F700C0000036
:1078D0008091C10080618093C10008951F93982F0B
:1078E0009595959595959595905D182F1F701A30E3
:1078F00014F0195A01C0105D892F0E94533C812F4A
:107900000E94533C1F91089515C02D9A2FEF31EE20
:1079100044E0215030404040E1F700C000002D9885
:107920002FEF31EE44E0215030404040E1F700C0FD
:1079300000008150882349F70895E0EBF0E0808152
:107940008F7B8083239810821092B1001092B30035
:10795000E0910401F091050109950895EF92FF92DD
:107960000F931F93EE24FF24870110C00894E11C9D
:10797000F11C011D111D81E4E81682E4F8068FE078
:10798000080780E0180710F00E949D3C8091C0001D
:1079900087FFECCF8091C6001F910F91FF90EF9071
:1079A00008951F93182F03C00E94AE3C115011235D
:1079B000D9F71F9108951F930E94AE3C182F0E9483
:1079C000533C113614F0175503C010330CF010530C
:1079D000812F1F9108951F930E94DB3C182F0E9456
:1079E000DB3C1295107F810F1F9108950E94AE3CE1
:1079F000803239F484E10E94533C80E10E94533C80
:107A00000895809103018F5F80930301853011F405
:107A10000E949D3C08951F93182F0E94AE3C803217
:107A200051F484E10E94533C812F0E94533C80E139
:107A30000E94533C09C0809103018F5F8093030132
:107A4000853011F40E949D3C1F910895BF92CF9202
:107A5000DF92EF92FF920F931F93CF93DF9300007B
:107A60008FE98093C40081E08093C50098E19093F2
:107A7000C10096E09093C2005098589A239A809340
:107A8000B00089E08093B10089E68093B3008091D3
:107A9000B00080648093B000259A81E00E94843C0D
:107AA000BB24B3940E94AE3C803309F441C08133BF
:107AB000E1F40E94AE3C803209F0ACC184E10E9446
:107AC000533C81E40E94533C86E50E94533C82E58E
:107AD0000E94533C80E20E94533C89E40E94533C44
:107AE00083E50E94533C80E522C1803439F40E9432
:107AF000AE3C8638E8F00E94AE3C1AC0813499F45E
:107B00000E94AE3C803811F482E081C1813811F4CA
:107B100081E07DC1823811F480E179C1883909F0B2
:107B200075C183E074C1823431F484E10E94D13C98
:107B30000E94F63CB7CF853411F485E0F7CF80354D
:107B4000B9F38235A9F3813599F3853549F40E945B
:107B5000AE3C809306010E94AE3C80930701E8CFC3
:107B60008635C9F40E94AE3C803389F40E94AE3C55
:107B70000E94AE3C082F0E94AE3C002311F48EE11F
:107B800046C1013011F485E942C18FE040C183E074
:107B90000E94D13C3BC1843609F0CFC00E94AE3C6C
:107BA000809309020E94AE3C8093080280910C02EF
:107BB0008E7F80930C020E94AE3C853429F4809124
:107BC0000C02816080930C0208E011E06801EE2451
:107BD000FF2408C00E94AE3CF60181936F01089417
:107BE000E11CF11C8091080290910902E816F90647
:107BF00088F30E94AE3C803209F00CC180910C02E7
:107C000080FF2AC08091060190910701880F991F7B
:107C1000909307018093060180E090E015C0F999E8
:107C2000FECF209106013091070132BD21BDF80140
:107C300041918F0140BDFA9AF99A2F5F3F4F3093DF
:107C40000701209306010196209108023091090254
:107C50008217930720F36AC080910701880F880B71
:107C60008B2180930B028091060190910701880F70
:107C7000991F90930701809306018091080280FF6D
:107C800009C080910802909109020196909309021F
:107C900080930802F894F999FECF1127E09106012C
:107CA000F0910701C8E0D1E08091080290910902AB
:107CB000103091F40091570001700130D9F303E0C6
:107CC00000935700E8950091570001700130D9F3F7
:107CD00001E100935700E895099019900091570031
:107CE00001700130D9F301E000935700E895139536
:107CF000103498F011270091570001700130D9F32A
:107D000005E000935700E89500915700017001309D
:107D1000D9F301E100935700E8953296029709F0F4
:107D2000C7CF103011F00296E5CF112484E10E94F4
:107D3000533C80E10E94533CB5CE843709F053C0D8
:107D40000E94AE3C809309020E94AE3C80930802E0
:107D50008091060190910701880F991F9093070168
:107D6000809306010E94AE3C90910C02853411F480
:107D7000916001C09E7F90930C020E94AE3C8032C5
:107D800009F090CE84E10E94533C00E010E023C053
:107D900080910C0280FF0BC0F999FECF8091060103
:107DA0009091070192BD81BDF89A80B507C081FD11
:107DB00007C0E0910601F091070184910E94533CB5
:107DC000809106019091070101969093070180939D
:107DD00006010F5F1F4F809108029091090208175A
:107DE0001907B0F2A6CF853779F40E94AE3C8032F5
:107DF00089F484E10E94533C8EE10E94533C85E962
:107E00000E94533C8FE093CF863721F480E00E949C
:107E10000B3D48CE809103018F5F80930301853035
:0E7E200009F040CE0E949D3C3DCEF894FFCF6D
:027E2E008000D2
:040000030000780081
:00000001FF
